:020000040800F2
:1000000000000220010A0008510A0008510A0008F5
:10001000510A0008510A0008510A000800000000B7
:10002000000000000000000000000000510A00086D
:10003000510A000800000000510A000835090008B4
:10004000510A0008510A0008510A0008510A000824
:10005000510A0008510A0008510A0008510A000814
:10006000510A0008510A0008510A0008510A000804
:10007000510A0008510A0008510A0008510A0008F4
:10008000510A0008510A0008510A0008510A0008E4
:10009000510A0008510A0008510A0008510A0008D4
:1000A000510A0008510A0008510A0008510A0008C4
:1000B000510A0008510A0008510A0008510A0008B4
:1000C000510A0008510A0008510A0008510A0008A4
:1000D000510A0008510A0008510A0008510A000894
:1000E000510A0008510A0008510A0008510A000884
:1000F000510A0008510A0008510A0008510A000874
:10010000510A0008510A0008510A0008510A000863
:10011000510A0008510A0008510A0008510A000853
:10012000510A0008510A0008510A0008510A000843
:10013000510A00080000000000000000510A0008F9
:10014000510A0008510A0008510A0008510A000823
:10015000510A0008510A0008510A0008510A000813
:10016000510A0008510A0008510A0008510A000803
:10017000510A0008510A0008510A00080000000056
:1001800000000000510A000800000000000000000C
:10019000510A00080000000000000000510A000899
:1001A000000000000000000000000000510A0008EC
:1001B000510A0008510A0008510A0008510A0008B3
:0401C000510A0008D8
:1001C40010B5054C237833B9044B13B10448AFF38D
:1001D40000800123237010BD0C00002000000000EB
:1001E400B80A000808B5034B1BB103490348AFF331
:1001F400008008BD0000000010000020B80A0008BC
:100204007047000010B504460E4B18784FF47A730B
:10021400B3FBF0F30C4A1068B0FBF3F000F09CF869
:1002240068B90F2C01D901200AE0002221464FF0C1
:10023400FF3000F05DF8034B5C60002000E001201B
:1002440010BD00BF000000200800002008B50B4BC3
:100254001A6842F400721A601A6842F480621A60E2
:100264001A6842F480721A60032000F02FF800200C
:10027400FFF7C8FFFFF7C4FF002008BD003C0240A1
:10028400034A1168034B1B780B441360704700BF8B
:100294006C00002000000020014B1868704700BF6C
:1002A4006C00002038B50446FFF7F6FF0546B4F1AC
:1002B400FF3F02D0044B1B781C44FFF7EDFF401BAB
:1002C400A042FAD338BD00BF00000020074AD3681B
:1002D40023F4E0631B041B0C000200F4E0601843E9
:1002E40040F0BF6040F40030D060704700ED00E0A3
:1002F40030B4174BDB68C3F30223C3F10704042CA7
:1003040028BF04241D1D062D18D9033B4FF0FF35CB
:1003140005FA04F421EA0401994005FA03F322EAF8
:100324000303194300280BDB0901C9B200F1604043
:1003340000F5614080F8001330BC70470023E5E706
:1003440000F00F000901C9B2024B1954F4E700BFD1
:1003540000ED00E014ED00E00138B0F1807F0AD236
:10036400064B5860064AF02182F82310002098605A
:1003740007221A6070470120704700BF10E000E0B8
:1003840000ED00E000230F2B00F2D180F0B482B026
:1003940039E0062200E00022B2403A430234644EBF
:1003A40046F82420634A1468EA4302EA04064F68C4
:1003B40017F4803F01D045EA04065E4C2660646869
:1003C40002EA04064F6817F4003F01D045EA040628
:1003D400584C6660A46802EA04064F6817F4801F4C
:1003E40001D045EA0406534CA660E46822404E68F6
:1003F40016F4001F01D045EA04024E4CE2600133BA
:100404000F2B00F2918001229A400C6804EA020545
:10041400AA42F4D14C68022C01D0122C10D1DE086F
:10042400083650F826C003F00704A7000F24BC4088
:100434002CEA040C0C69BC4044EA0C0440F8264045
:1004440004685F000326BE40F64306EA040C4C68C9
:1004540004F00304BC4044EA0C0404604C6804F156
:10046400FF3CBCF1010F03D9112C01D0122C10D187
:10047400846806EA040CCC68BC4044EA0C0484603A
:10048400446824EA02024C68C4F300149C401443F8
:100494004460C26816408A68BA403243C2604A68FF
:1004A40012F0805FABD000220192234A546C44F4D2
:1004B40080445464526C02F480420192019A9C0874
:1004C400A61C1B4A52F8267003F0030296000F2262
:1004D400B24027EA0207194A90423FF45CAF02F5A2
:1004E4008062904216D002F58062904214D002F5E8
:1004F4008062904212D002F58062904210D002F5E0
:10050400806290420ED002F5806290423FF441AF87
:10051400072241E701223FE702223DE703223BE7AE
:10052400042239E7052237E702B0F0BC7047704770
:1005340000380140003C0140003802400000024005
:1005440070B4036A23F001030362036A4268846996
:1005540024F073040D6845EA040623F002048B6852
:1005640023430C4DA84202D00B4CA0420BD123F0E4
:100574000803CD682B4323F0040322F440724D6931
:1005840015438A692A43426086614A68426303626A
:1005940070BC7047000001400004014030B4036A9D
:1005A40023F480730362036A4268C46924F0730409
:1005B4000D682C4323F400738D6843EA05230E4D24
:1005C400A84203D005F58065A8420ED123F4006348
:1005D400CD6843EA052323F4806322F440524D6935
:1005E40042EA05128D6942EA05124260C4614A6812
:1005F400C263036230BC70470000014030B4036A38
:1006040023F480530362036A4468C26922F4E64215
:100614000D6842EA052223F400538D6843EA05334A
:10062400094DA84203D005F58065A84204D124F4FD
:1006340080444D6944EA85144460C2614A68026496
:10064400036230BC704700BF0000014070470000E7
:1006540003682E4A904212D0B0F1804F0FD0A2F519
:100664007C4290420BD002F58062904207D002F5A2
:100674008062904203D002F57842904203D123F085
:1006840070034A681343214A90422AD0B0F1804F44
:1006940027D0A2F57C42904223D002F5806290429A
:1006A4001FD002F5806290421BD002F5784290423E
:1006B40017D002F57052904213D002F58062904236
:1006C4000FD002F5806290420BD0A2F5983290428E
:1006D40007D002F58062904203D002F58062904216
:1006E40003D123F44073CA68134303608B68C36265
:1006F4000B688362054B984203D003F580639842EC
:1007040001D10B6903630123436170470000014079
:10071400A8B110B5044690F839305BB1022384F8CF
:100724003930211D2068FFF793FF012384F8393005
:10073400002010BD80F83830FFF788FFEEE7012075
:100744007047000030B4036A23F010030362036AA5
:100754004468826922F4E6420D6842EA052223F0E5
:1007640020038D6843EA05130E4DA84203D005F516
:100774008065A8420ED123F08003CD6843EA0513B7
:1007840023F0400324F440644D6944EA85048D69F0
:1007940044EA8504446082614A688263036230BC2F
:1007A400704700BF0000014090F83830012B28D07A
:1007B40010B50446012380F83830022380F839301C
:1007C4000C2A0BD8DFE802F0070A0A0A110A0A0AFF
:1007D400150A0A0A19000068FFF7B2FE012384F81B
:1007E4003930002084F8380010BD0068FFF7AAFFF4
:1007F400F4E70068FFF7D2FEF0E70068FFF7FEFEBB
:10080400ECE70220704710B4012303FA01F4036AF1
:1008140023EA04030362036A8A40134303625DF814
:10082400044B704710B5044601220068FFF7EBFF44
:100834002368094A934203D002F58062934203D1AC
:100844005A6C42F400425A642268136843F001036C
:100854001360002010BD00BF0000014000B587B048
:10086400FFF7F4FC002102912C4B1A6B42F00202B8
:100874001A631A6B02F002020292029A03911A6C32
:1008840042F004021A641B6C03F004030393039BF9
:10089400234B04934FF48073ADF81430214B1B7831
:1008A400BFF35B8F13F0010F25D01F4C40F65F118F
:1008B400204600F075F84FF47A70FFF7F3FC40F629
:1008C4007F41204600F06CF84FF47A70FFF7EAFCA1
:1008D40040F65F11204600F063F84FF47A70FFF79A
:1008E400E1FC40F23F61204600F05AF84FF47A7080
:1008F400FFF7D8FCD9E70B4800F0A9F80028D4D0BA
:10090400084C082300930223084A04A9201D00F080
:1009140013F8204600F0A7F8C7E700BF00380240EC
:1009240000040240280000202C00002000080040A1
:1009340008B5FFF7A5FC08BDF0B58DB00446084620
:100944001746129EE6630025029503958A88009255
:1009540002220192049369460068FFF713FD2760A1
:1009640009236360A56047F6FF43E36025612046E1
:10097400FFF7CEFE0795089509950A950B95602318
:10098400059340F65F130693324605A92046FFF708
:100994000BFF31462046FFF745FF20460DB0F0BD62
:1009A40003683433C26B920843F822107047000086
:1009B4000F49D1F8883043F47003C1F888300D4BE7
:1009C4001A6842F001021A60002098601A6822F046
:1009D400847222F480321A60074A5A601A6822F438
:1009E40080221A60D8604FF000638B60704700BFAC
:1009F40000ED00E00038024010300024DFF834D06D
:100A0400002103E00C4B5B58435004310B480C4B62
:100A140042189A42F6D30B4A02E0002342F8043B00
:100A2400094B9A42F9D3FFF7C3FF00F01FF8FFF711
:100A340015FF704700000220D80A000800000020BB
:100A44000C0000200C00002070000020FEE703686A
:100A5400DB0706D4437803B1FFDE01234370184655
:100A640070470020704701230360704770B50D4E36
:100A74000D4CA41BA4100025A54209D10B4E0C4C0F
:100A840000F018F8A41BA4100025A54205D170BDE0
:100A940056F8253098470135EEE756F82530984743
:100AA4000135F2E7D00A0008D00A0008D00A00088D
:100AB400D40A0008F8B500BFF8BC08BC9E467047CD
:0C0AC400F8B500BFF8BC08BC9E467047A7
:040AD000E901000830
:040AD400C501000850
:0C0AD80001000000100000000024F400E9
:0400000508000A01E4
:00000001FF
